ARM Linker, 4.1 [Build 481] [Standard]

==============================================================================

Section Cross References

    startup_stm32f10x_hd.o(RESET) refers to startup_stm32f10x_hd.o(STACK) for __initial_sp
    startup_stm32f10x_hd.o(RESET) refers to startup_stm32f10x_hd.o(.text) for Reset_Handler
    startup_stm32f10x_hd.o(RESET) refers to stm32f10x_it.o(.text) for NMI_Handler
    startup_stm32f10x_hd.o(.text) refers to system_stm32f10x.o(.text) for SystemInit
    startup_stm32f10x_hd.o(.text) refers to entry.o(.ARM.Collect$$$$00000000) for __main
    led.o(.text) refers to stm32f10x_rcc.o(.text) for RCC_APB2PeriphClockCmd
    led.o(.text) refers to stm32f10x_gpio.o(.text) for GPIO_Init
    main.o(.text) refers to stm32f10x_gpio.o(.text) for GPIO_SetBits
    main.o(.text) refers to systick.o(.text) for Delay_ms
    main.o(.text) refers to w5500.o(.text) for Read_1_Byte
    main.o(.text) refers to system_init.o(.text) for System_Initialization
    main.o(.text) refers to mb.o(.text) for eMBTCPInit
    main.o(.text) refers to printfb.o(i.__0printf$bare) for __2printf
    main.o(.text) refers to mbutils.o(.text) for xMBUtilGetBits
    main.o(.text) refers to main.o(.data) for ucRegCoilsBuf
    stm32f10x_it.o(.text) refers to systick.o(.data) for TimingDelay
    system_init.o(.text) refers to stm32f10x_rcc.o(.text) for RCC_APB2PeriphClockCmd
    system_init.o(.text) refers to stm32f10x_gpio.o(.text) for GPIO_Init
==============================================================================

Removing Unused input sections from the image.

    Removing startup_stm32f10x_hd.o(HEAP), (512 bytes).
    Removing stm32f10x_tim.o(.text), (3502 bytes).
    Removing core_cm3.o(.emb_text), (32 bytes).
    Removing mbcrc.o(.text), (56 bytes).
    Removing mbcrc.o(.constdata), (512 bytes).
    Removing dadd.o(.text), (330 bytes).
    Removing dmul.o(.text), (226 bytes).
    Removing ddiv.o(.text), (222 bytes).
    Removing dfixul.o(.text), (48 bytes).
    Removing cdrcmple.o(.text), (40 bytes).
    Removing depilogue.o(.text), (194 bytes).

11 unused section(s) (total 5674 bytes) removed from the image.

==============================================================================

Image Symbol Table

    Local Symbols

    Symbol Name                              Value     Ov Type        Size  Object(Section)

    ../../microlib/division.c                0x00000000   Number         0  uldiv.o ABSOLUTE
    ../../microlib/division.c                0x00000000   Number         0  uidiv.o ABSOLUTE
    ../../microlib/fpadd.c                   0x00000000   Number         0  dadd.o ABSOLUTE
    ../../microlib/fpdiv.c                   0x00000000   Number         0  ddiv.o ABSOLUTE
    ../../microlib/fpepilogue.c              0x00000000   Number         0  depilogue.o ABSOLUTE
    ../../microlib/fpfix.c                   0x00000000   Number         0  dfixul.o ABSOLUTE
    ../../microlib/fpmul.c                   0x00000000   Number         0  dmul.o ABSOLUTE
    ../../microlib/init/entry.s              0x00000000   Number         0  entry7.o ABSOLUTE
    ../../microlib/init/entry.s              0x00000000   Number         0  entry5.o ABSOLUTE
    ../../microlib/init/entry.s              0x00000000   Number         0  entry2.o ABSOLUTE
    ../../microlib/init/entry.s              0x00000000   Number         0  entry.o ABSOLUTE
    ../../microlib/longlong.c                0x00000000   Number         0  llsshr.o ABSOLUTE
    ../../microlib/longlong.c                0x00000000   Number         0  llushr.o ABSOLUTE
    ../../microlib/longlong.c                0x00000000   Number         0  llshl.o ABSOLUTE
    ../../microlib/printf/printf.c           0x00000000   Number         0  printf0.o ABSOLUTE
    ../../microlib/printf/printf.c           0x00000000   Number         0  printf5.o ABSOLUTE
    ../../microlib/printf/printf.c           0x00000000   Number         0  printf4.o ABSOLUTE
    ../../microlib/printf/printf.c           0x00000000   Number         0  printf3.o ABSOLUTE
    ../../microlib/printf/printf.c           0x00000000   Number         0  printf2.o ABSOLUTE
    ../../microlib/printf/printf.c           0x00000000   Number         0  printf1.o ABSOLUTE
    ../../microlib/printf/printf.c           0x00000000   Number         0  printfb.o ABSOLUTE
    ../../microlib/printf/printf.c           0x00000000   Number         0  printfa.o ABSOLUTE
    ../../microlib/printf/printf.c           0x00000000   Number         0  printf8.o ABSOLUTE
    ../../microlib/printf/printf.c           0x00000000   Number         0  printf7.o ABSOLUTE
    ../../microlib/printf/printf.c           0x00000000   Number         0  printf6.o ABSOLUTE
    ../../microlib/stdio/streams.c           0x00000000   Number         0  stdout.o ABSOLUTE
    ../../microlib/string/memcpy.c           0x00000000   Number         0  memcpya.o ABSOLUTE
    ../../microlib/string/memcpy.c           0x00000000   Number         0  memcpyb.o ABSOLUTE
    ../../microlib/stubs.s                   0x00000000   Number         0  iusefp.o ABSOLUTE
    ..\CMSIS\core_cm3.c                      0x00000000   Number         0  core_cm3.o ABSOLUTE
    ..\CMSIS\startup\startup_stm32f10x_hd.s  0x00000000   Number         0  startup_stm32f10x_hd.o ABSOLUTE
    ..\CMSIS\system_stm32f10x.c              0x00000000   Number         0  system_stm32f10x.o ABSOLUTE
    ..\FWlib\src\misc.c                      0x00000000   Number         0  misc.o ABSOLUTE
    ..\FWlib\src\stm32f10x_gpio.c            0x00000000   Number         0  stm32f10x_gpio.o ABSOLUTE
    ..\FWlib\src\stm32f10x_rcc.c             0x00000000   Number         0  stm32f10x_rcc.o ABSOLUTE
    ..\FWlib\src\stm32f10x_spi.c             0x00000000   Number         0  stm32f10x_spi.o ABSOLUTE
    ..\FWlib\src\stm32f10x_tim.c             0x00000000   Number         0  stm32f10x_tim.o ABSOLUTE
    ..\FWlib\src\stm32f10x_usart.c           0x00000000   Number         0  stm32f10x_usart.o ABSOLUTE
    ..\\CMSIS\\core_cm3.c                    0x00000000   Number         0  core_cm3.o ABSOLUTE
    ..\modbus\ascii\mbascii.c                0x00000000   Number         0  mbascii.o ABSOLUTE
    ..\modbus\functions\mbfunccoils.c        0x00000000   Number         0  mbfunccoils.o ABSOLUTE
    ..\modbus\functions\mbfuncdiag.c         0x00000000   Number         0  mbfuncdiag.o ABSOLUTE
    ..\modbus\functions\mbfuncdisc.c         0x00000000   Number         0  mbfuncdisc.o ABSOLUTE
    ..\modbus\functions\mbfuncholding.c      0x00000000   Number         0  mbfuncholding.o ABSOLUTE
    ..\modbus\functions\mbfuncinput.c        0x00000000   Number         0  mbfuncinput.o ABSOLUTE
    ..\modbus\functions\mbfuncother.c        0x00000000   Number         0  mbfuncother.o ABSOLUTE
    ..\modbus\functions\mbutils.c            0x00000000   Number         0  mbutils.o ABSOLUTE
    ..\modbus\mb.c                           0x00000000   Number         0  mb.o ABSOLUTE
    ..\modbus\port\portevent.c               0x00000000   Number         0  portevent.o ABSOLUTE
    ..\modbus\port\porttcp.c                 0x00000000   Number         0  porttcp.o ABSOLUTE
    ..\modbus\rtu\mbcrc.c                    0x00000000   Number         0  mbcrc.o ABSOLUTE
    ..\modbus\tcp\mbtcp.c                    0x00000000   Number         0  mbtcp.o ABSOLUTE
    cdrcmple.s                               0x00000000   Number         0  cdrcmple.o ABSOLUTE
    dc.s                                     0x00000000   Number         0  dc.o ABSOLUTE
    handlers.s                               0x00000000   Number         0  handlers.o ABSOLUTE
    init.s                                   0x00000000   Number         0  init.o ABSOLUTE
    src\SysTick.c                            0x00000000   Number         0  systick.o ABSOLUTE
    src\System_Init.c                        0x00000000   Number         0  system_init.o ABSOLUTE
    src\W5500.c                              0x00000000   Number         0  w5500.o ABSOLUTE
    src\led.c                                0x00000000   Number         0  led.o ABSOLUTE
    src\main.c                               0x00000000   Number         0  main.o ABSOLUTE
    src\stm32f10x_it.c                       0x00000000   Number         0  stm32f10x_it.o ABSOLUTE
    src\usart1.c                             0x00000000   Number         0  usart1.o ABSOLUTE
    RESET                                    0x08000000   Section      304  startup_stm32f10x_hd.o(RESET)
    .ARM.Collect$$$$00000000                 0x08000130   Section        0  entry.o(.ARM.Collect$$$$00000000)
    .ARM.Collect$$$$00000001                 0x08000130   Section        4  entry2.o(.ARM.Collect$$$$00000001)
    .ARM.Collect$$$$00000004                 0x08000134   Section        4  entry5.o(.ARM.Collect$$$$00000004)
    .ARM.Collect$$$$00000007                 0x08000138   Section        8  entry7.o(.ARM.Collect$$$$00000007)
    .ARM.Collect$$$$00002712                 0x08000140   Section        4  entry2.o(.ARM.Collect$$$$00002712)
    __lit__00000000                          0x08000140   Data           4  entry2.o(.ARM.Collect$$$$00002712)
    .text                                    0x08000144   Section       36  startup_stm32f10x_hd.o(.text)
    .text                                    0x08000168   Section        0  led.o(.text)
    .text                                    0x08000228   Section        0  main.o(.text)
    .text                                    0x080005b0   Section        0  stm32f10x_it.o(.text)
    .text                                    0x080005e0   Section        0  system_init.o(.text)
    .text                                    0x08000728   Section        0  systick.o(.text)
    .text                                    0x080007a0   Section        0  usart1.o(.text)
    itoa                                     0x08000859   Thumb Code    98  usart1.o(.text)
    .text                                    0x080009c8   Section        0  w5500.o(.text)
    .text                                    0x0800132c   Section        0  stm32f10x_gpio.o(.text)
    .text                                    0x08001684   Section        0  stm32f10x_rcc.o(.text)
    .text                                    0x08001a28   Section        0  misc.o(.text)
    .text                                    0x08001b20   Section        0  stm32f10x_usart.o(.text)
    .text                                    0x08001f2c   Section        0  stm32f10x_spi.o(.text)
    .text                                    0x0800223c   Section        0  system_stm32f10x.o(.text)
    SetSysClockTo72                          0x0800223d   Thumb Code   192  system_stm32f10x.o(.text)
    SetSysClock                              0x080022fd   Thumb Code     8  system_stm32f10x.o(.text)
    .text                                    0x08002404   Section        0  mbfunccoils.o(.text)
    .text                                    0x080025b2   Section        0  mbfuncdisc.o(.text)
    .text                                    0x0800265e   Section        0  mbfuncholding.o(.text)
    .text                                    0x0800286e   Section        0  mbfuncinput.o(.text)
    .text                                    0x080028fc   Section        0  mbfuncother.o(.text)
    .text                                    0x08002994   Section        0  mbutils.o(.text)
    .text                                    0x08002a44   Section        0  mbtcp.o(.text)
    .text                                    0x08002adc   Section        0  mb.o(.text)
    .text                                    0x08002dc0   Section        0  portevent.o(.text)
    .text                                    0x08002e08   Section        0  porttcp.o(.text)
    .text                                    0x08002ec4   Section        0  memcpya.o(.text)
    .text                                    0x08002ee8   Section       36  init.o(.text)
    i.__0printf$bare                         0x08002f0c   Section        0  printfb.o(i.__0printf$bare)
    i.__scatterload_copy                     0x08002f1c   Section       14  handlers.o(i.__scatterload_copy)
    i.__scatterload_null                     0x08002f2a   Section        2  handlers.o(i.__scatterload_null)
    i.__scatterload_zeroinit                 0x08002f2c   Section       14  handlers.o(i.__scatterload_zeroinit)
    i._printf_core                           0x08002f3a   Section        0  printfb.o(i._printf_core)
    _printf_core                             0x08002f3b   Thumb Code    34  printfb.o(i._printf_core)
    .data                                    0x20000000   Section       24  main.o(.data)
    usRegHoldingStart                        0x20000000   Data           2  main.o(.data)
    usRegHoldingBuf                          0x20000002   Data           8  main.o(.data)
    usRegInputStart                          0x2000000a   Data           2  main.o(.data)
    usRegInputBuf                            0x2000000c   Data           8  main.o(.data)
    ucRegCoilsBuf                            0x20000014   Data           2  main.o(.data)
    ucRegDiscBuf                             0x20000016   Data           2  main.o(.data)
    .data                                    0x20000018   Section        4  systick.o(.data)
    .data                                    0x2000001c   Section       20  stm32f10x_rcc.o(.data)
    APBAHBPrescTable                         0x2000001c   Data          16  stm32f10x_rcc.o(.data)
    ADCPrescTable                            0x2000002c   Data           4  stm32f10x_rcc.o(.data)
    .data                                    0x20000030   Section       20  system_stm32f10x.o(.data)
    .data                                    0x20000044   Section        2  mbfuncother.o(.data)
    usMBSlaveIDLen                           0x20000044   Data           2  mbfuncother.o(.data)
    .data                                    0x20000048   Section      184  mb.o(.data)
    eMBState                                 0x20000048   Data           1  mb.o(.data)
    xFuncHandlers                            0x2000004c   Data         128  mb.o(.data)
    ucMBFrame                                0x200000cc   Data           4  mb.o(.data)
    ucRcvAddress                             0x200000d0   Data           1  mb.o(.data)
    ucFunctionCode                           0x200000d1   Data           1  mb.o(.data)
    usLength                                 0x200000d2   Data           2  mb.o(.data)
    eException                               0x200000d4   Data           1  mb.o(.data)
    ucMBAddress                              0x200000d5   Data           1  mb.o(.data)
    eMBCurrentMode                           0x200000d6   Data           1  mb.o(.data)
    peMBFrameSendCur                         0x200000d8   Data           4  mb.o(.data)
    pvMBFrameStartCur                        0x200000dc   Data           4  mb.o(.data)
    pvMBFrameStopCur                         0x200000e0   Data           4  mb.o(.data)
    peMBFrameReceiveCur                      0x200000e4   Data           4  mb.o(.data)
    pvMBFrameCloseCur                        0x200000e8   Data           4  mb.o(.data)
    .data                                    0x20000100   Section        2  portevent.o(.data)
    eQueuedEvent                             0x20000100   Data           1  portevent.o(.data)
    xEventInQueue                            0x20000101   Data           1  portevent.o(.data)
    .data                                    0x20000102   Section        2  porttcp.o(.data)
    usTCPBufLen                              0x20000102   Data           2  porttcp.o(.data)
    .data                                    0x20000104   Section        4  stdout.o(.data)
    .bss                                     0x20000108   Section       32  mbfuncother.o(.bss)
    ucMBSlaveID                              0x20000108   Data          32  mbfuncother.o(.bss)
    .bss                                     0x20000128   Section      263  porttcp.o(.bss)
    aucTCPBuf                                0x20000128   Data         263  porttcp.o(.bss)
    STACK                                    0x20000230   Section     1024  startup_stm32f10x_hd.o(STACK)

    Global Symbols

    Symbol Name                              Value     Ov Type        Size  Object(Section)

    BuildAttributes$$THM_ISAv4$P$D$K$B$S$PE$A:L22UL41UL21$X:L11$S22US41US21$IEEE1$IW$USESV6$~STKCKD$USESV7$~SHL$OSPACE$ROPI$EBA8$MICROLIB$REQ8$PRES8$EABIv2 0x00000000   Number         0  anon$$obj.o ABSOLUTE
    __ARM_use_no_argv                        0x00000000   Number         0  main.o ABSOLUTE
    __decompress                              - Undefined Weak Reference
    __Vectors_Size                           0x00000130   Number         0  startup_stm32f10x_hd.o ABSOLUTE
    __Vectors                                0x08000000   Data           4  startup_stm32f10x_hd.o(RESET)
    __Vectors_End                            0x08000130   Data           0  startup_stm32f10x_hd.o(RESET)
    __main                                   0x08000131   Thumb Code     0  entry.o(.ARM.Collect$$$$00000000)
    _main_stk                                0x08000131   Thumb Code     0  entry2.o(.ARM.Collect$$$$00000001)
    _main_scatterload                        0x08000135   Thumb Code     0  entry5.o(.ARM.Collect$$$$00000004)
    __main_after_scatterload                 0x08000139   Thumb Code     0  entry5.o(.ARM.Collect$$$$00000004)
    _main_init                               0x08000139   Thumb Code     0  entry7.o(.ARM.Collect$$$$00000007)
    Reset_Handler                            0x08000145   Thumb Code     8  startup_stm32f10x_hd.o(.text)
    ADC1_2_IRQHandler                        0x0800015f   Thumb Code     0  startup_stm32f10x_hd.o(.text)
    ADC3_IRQHandler                          0x0800015f   Thumb Code     0  startup_stm32f10x_hd.o(.text)
    CAN1_RX1_IRQHandler                      0x0800015f   Thumb Code     0  startup_stm32f10x_hd.o(.text)
    CAN1_SCE_IRQHandler                      0x0800015f   Thumb Code     0  startup_stm32f10x_hd.o(.text)
    DMA1_Channel1_IRQHandler                 0x0800015f   Thumb Code     0  startup_stm32f10x_hd.o(.text)
    DMA1_Channel2_IRQHandler                 0x0800015f   Thumb Code     0  startup_stm32f10x_hd.o(.text)
    DMA1_Channel3_IRQHandler                 0x0800015f   Thumb Code     0  startup_stm32f10x_hd.o(.text)
    DMA1_Channel4_IRQHandler                 0x0800015f   Thumb Code     0  startup_stm32f10x_hd.o(.text)
    DMA1_Channel5_IRQHandler                 0x0800015f   Thumb Code     0  startup_stm32f10x_hd.o(.text)
    DMA1_Channel6_IRQHandler                 0x0800015f   Thumb Code     0  startup_stm32f10x_hd.o(.text)
    DMA1_Channel7_IRQHandler                 0x0800015f   Thumb Code     0  startup_stm32f10x_hd.o(.text)
    DMA2_Channel1_IRQHandler                 0x0800015f   Thumb Code     0  startup_stm32f10x_hd.o(.text)
    DMA2_Channel2_IRQHandler                 0x0800015f   Thumb Code     0  startup_stm32f10x_hd.o(.text)
    DMA2_Channel3_IRQHandler                 0x0800015f   Thumb Code     0  startup_stm32f10x_hd.o(.text)
    DMA2_Channel4_5_IRQHandler               0x0800015f   Thumb Code     0  startup_stm32f10x_hd.o(.text)
    EXTI0_IRQHandler                         0x0800015f   Thumb Code     0  startup_stm32f10x_hd.o(.text)
    EXTI15_10_IRQHandler                     0x0800015f   Thumb Code     0  startup_stm32f10x_hd.o(.text)
    EXTI1_IRQHandler                         0x0800015f   Thumb Code     0  startup_stm32f10x_hd.o(.text)
    EXTI2_IRQHandler                         0x0800015f   Thumb Code     0  startup_stm32f10x_hd.o(.text)
    EXTI3_IRQHandler                         0x0800015f   Thumb Code     0  startup_stm32f10x_hd.o(.text)
    EXTI4_IRQHandler                         0x0800015f   Thumb Code     0  startup_stm32f10x_hd.o(.text)
    EXTI9_5_IRQHandler                       0x0800015f   Thumb Code     0  startup_stm32f10x_hd.o(.text)
    FLASH_IRQHandler                         0x0800015f   Thumb Code     0  startup_stm32f10x_hd.o(.text)
    FSMC_IRQHandler                          0x0800015f   Thumb Code     0  startup_stm32f10x_hd.o(.text)
    I2C1_ER_IRQHandler                       0x0800015f   Thumb Code     0  startup_stm32f10x_hd.o(.text)
    I2C1_EV_IRQHandler                       0x0800015f   Thumb Code     0  startup_stm32f10x_hd.o(.text)
    I2C2_ER_IRQHandler                       0x0800015f   Thumb Code     0  startup_stm32f10x_hd.o(.text)
    I2C2_EV_IRQHandler                       0x0800015f   Thumb Code     0  startup_stm32f10x_hd.o(.text)
    PVD_IRQHandler                           0x0800015f   Thumb Code     0  startup_stm32f10x_hd.o(.text)
    RCC_IRQHandler                           0x0800015f   Thumb Code     0  startup_stm32f10x_hd.o(.text)
    RTCAlarm_IRQHandler                      0x0800015f   Thumb Code     0  startup_stm32f10x_hd.o(.text)
    RTC_IRQHandler                           0x0800015f   Thumb Code     0  startup_stm32f10x_hd.o(.text)
    SDIO_IRQHandler                          0x0800015f   Thumb Code     0  startup_stm32f10x_hd.o(.text)
    SPI1_IRQHandler                          0x0800015f   Thumb Code     0  startup_stm32f10x_hd.o(.text)
    SPI2_IRQHandler                          0x0800015f   Thumb Code     0  startup_stm32f10x_hd.o(.text)
    SPI3_IRQHandler                          0x0800015f   Thumb Code     0  startup_stm32f10x_hd.o(.text)
    TAMPER_IRQHandler                        0x0800015f   Thumb Code     0  startup_stm32f10x_hd.o(.text)
    TIM1_BRK_IRQHandler                      0x0800015f   Thumb Code     0  startup_stm32f10x_hd.o(.text)
    TIM1_CC_IRQHandler                       0x0800015f   Thumb Code     0  startup_stm32f10x_hd.o(.text)
    TIM1_TRG_COM_IRQHandler                  0x0800015f   Thumb Code     0  startup_stm32f10x_hd.o(.text)
    TIM1_UP_IRQHandler                       0x0800015f   Thumb Code     0  startup_stm32f10x_hd.o(.text)
    TIM3_IRQHandler                          0x0800015f   Thumb Code     0  startup_stm32f10x_hd.o(.text)
    TIM4_IRQHandler                          0x0800015f   Thumb Code     0  startup_stm32f10x_hd.o(.text)
    TIM5_IRQHandler                          0x0800015f   Thumb Code     0  startup_stm32f10x_hd.o(.text)
    TIM6_IRQHandler                          0x0800015f   Thumb Code     0  startup_stm32f10x_hd.o(.text)
    TIM7_IRQHandler                          0x0800015f   Thumb Code     0  startup_stm32f10x_hd.o(.text)
    TIM8_BRK_IRQHandler                      0x0800015f   Thumb Code     0  startup_stm32f10x_hd.o(.text)
    TIM8_CC_IRQHandler                       0x0800015f   Thumb Code     0  startup_stm32f10x_hd.o(.text)
    TIM8_TRG_COM_IRQHandler                  0x0800015f   Thumb Code     0  startup_stm32f10x_hd.o(.text)
    TIM8_UP_IRQHandler                       0x0800015f   Thumb Code     0  startup_stm32f10x_hd.o(.text)
    UART4_IRQHandler                         0x0800015f   Thumb Code     0  startup_stm32f10x_hd.o(.text)
    UART5_IRQHandler                         0x0800015f   Thumb Code     0  startup_stm32f10x_hd.o(.text)
    USART1_IRQHandler                        0x0800015f   Thumb Code     0  startup_stm32f10x_hd.o(.text)
    USART2_IRQHandler                        0x0800015f   Thumb Code     0  startup_stm32f10x_hd.o(.text)
    USART3_IRQHandler                        0x0800015f   Thumb Code     0  startup_stm32f10x_hd.o(.text)
    USBWakeUp_IRQHandler                     0x0800015f   Thumb Code     0  startup_stm32f10x_hd.o(.text)
    USB_HP_CAN1_TX_IRQHandler                0x0800015f   Thumb Code     0  startup_stm32f10x_hd.o(.text)
    USB_LP_CAN1_RX0_IRQHandler               0x0800015f   Thumb Code     0  startup_stm32f10x_hd.o(.text)
    WWDG_IRQHandler                          0x0800015f   Thumb Code     0  startup_stm32f10x_hd.o(.text)
    LED_GPIO_Config                          0x08000169   Thumb Code   188  led.o(.text)
    W5500_Configuration                      0x08000229   Thumb Code   186  main.o(.text)
    BSP_LED                                  0x080002e3   Thumb Code   120  main.o(.text)
    main                                     0x0800035b   Thumb Code    96  main.o(.text)
    eMBRegHoldingCB                          0x080003bb   Thumb Code   120  main.o(.text)
    eMBRegInputCB                            0x08000433   Thumb Code    66  main.o(.text)
    eMBRegCoilsCB                            0x08000475   Thumb Code   146  main.o(.text)
    eMBRegDiscreteCB                         0x08000507   Thumb Code    94  main.o(.text)
    NMI_Handler                              0x080005b1   Thumb Code     2  stm32f10x_it.o(.text)
    HardFault_Handler                        0x080005b3   Thumb Code     4  stm32f10x_it.o(.text)
    MemManage_Handler                        0x080005b7   Thumb Code     4  stm32f10x_it.o(.text)
    BusFault_Handler                         0x080005bb   Thumb Code     4  stm32f10x_it.o(.text)
    UsageFault_Handler                       0x080005bf   Thumb Code     4  stm32f10x_it.o(.text)
    SVC_Handler                              0x080005c3   Thumb Code     2  stm32f10x_it.o(.text)
    DebugMon_Handler                         0x080005c5   Thumb Code     2  stm32f10x_it.o(.text)
    PendSV_Handler                           0x080005c7   Thumb Code     2  stm32f10x_it.o(.text)
    SysTick_Handler                          0x080005c9   Thumb Code    18  stm32f10x_it.o(.text)
    TIM2_IRQHandler                          0x080005db   Thumb Code     2  stm32f10x_it.o(.text)
    SPI_Configuration                        0x080005e1   Thumb Code   174  system_init.o(.text)
    GPIO_Configuration                       0x0800068f   Thumb Code    46  system_init.o(.text)
    System_Initialization                    0x080006bd   Thumb Code    28  system_init.o(.text)
    Socket0_Config                           0x080006d9   Thumb Code    70  system_init.o(.text)
    SysTick_Init                             0x08000729   Thumb Code    88  systick.o(.text)
    Delay_ms                                 0x08000781   Thumb Code    16  systick.o(.text)
    USART1_Config                            0x080007a1   Thumb Code   112  usart1.o(.text)
    USART1_NVIC_Configuration                0x08000811   Thumb Code    42  usart1.o(.text)
    fputc                                    0x0800083b   Thumb Code    30  usart1.o(.text)
    USART1_printf                            0x080008bb   Thumb Code   262  usart1.o(.text)
    Write_1_Byte                             0x080009c9   Thumb Code   120  w5500.o(.text)
    Write_2_Byte                             0x08000a41   Thumb Code   150  w5500.o(.text)
    Write_Bytes                              0x08000ad7   Thumb Code   140  w5500.o(.text)
    Write_SOCK_1_Byte                        0x08000b63   Thumb Code   134  w5500.o(.text)
    Write_SOCK_2_Byte                        0x08000be9   Thumb Code   164  w5500.o(.text)
    Write_SOCK_4_Byte                        0x08000c8d   Thumb Code   206  w5500.o(.text)
    Read_1_Byte                              0x08000d5b   Thumb Code   146  w5500.o(.text)
    Read_SOCK_1_Byte                         0x08000ded   Thumb Code   150  w5500.o(.text)
    Read_SOCK_2_Byte                         0x08000e83   Thumb Code   186  w5500.o(.text)
    Read_SOCK_Data_Buffer                    0x08000f3d   Thumb Code   448  w5500.o(.text)
    Write_SOCK_Data_Buffer                   0x080010fd   Thumb Code   380  w5500.o(.text)
    Socket_Connect                           0x08001279   Thumb Code    70  w5500.o(.text)
    Socket_Listen                            0x080012bf   Thumb Code   102  w5500.o(.text)
    GPIO_DeInit                              0x0800132d   Thumb Code   172  stm32f10x_gpio.o(.text)
    GPIO_AFIODeInit                          0x080013d9   Thumb Code    20  stm32f10x_gpio.o(.text)
    GPIO_Init                                0x080013ed   Thumb Code   274  stm32f10x_gpio.o(.text)
    GPIO_StructInit                          0x080014ff   Thumb Code    16  stm32f10x_gpio.o(.text)
    GPIO_ReadInputDataBit                    0x0800150f   Thumb Code    18  stm32f10x_gpio.o(.text)
    GPIO_ReadInputData                       0x08001521   Thumb Code     8  stm32f10x_gpio.o(.text)
    GPIO_ReadOutputDataBit                   0x08001529   Thumb Code    18  stm32f10x_gpio.o(.text)
    GPIO_ReadOutputData                      0x0800153b   Thumb Code     8  stm32f10x_gpio.o(.text)
    GPIO_SetBits                             0x08001543   Thumb Code     4  stm32f10x_gpio.o(.text)
    GPIO_ResetBits                           0x08001547   Thumb Code     4  stm32f10x_gpio.o(.text)
    GPIO_WriteBit                            0x0800154b   Thumb Code    10  stm32f10x_gpio.o(.text)
    GPIO_Write                               0x08001555   Thumb Code     4  stm32f10x_gpio.o(.text)
    GPIO_PinLockConfig                       0x08001559   Thumb Code    18  stm32f10x_gpio.o(.text)
    GPIO_EventOutputConfig                   0x0800156b   Thumb Code    26  stm32f10x_gpio.o(.text)
    GPIO_EventOutputCmd                      0x08001585   Thumb Code     6  stm32f10x_gpio.o(.text)
    GPIO_PinRemapConfig                      0x0800158b   Thumb Code   138  stm32f10x_gpio.o(.text)
    GPIO_EXTILineConfig                      0x08001615   Thumb Code    66  stm32f10x_gpio.o(.text)
    GPIO_ETH_MediaInterfaceConfig            0x08001657   Thumb Code     6  stm32f10x_gpio.o(.text)
    RCC_DeInit                               0x08001685   Thumb Code    64  stm32f10x_rcc.o(.text)
    RCC_HSEConfig                            0x080016c5   Thumb Code    70  stm32f10x_rcc.o(.text)
    RCC_GetFlagStatus                        0x0800170b   Thumb Code    56  stm32f10x_rcc.o(.text)
    RCC_WaitForHSEStartUp                    0x08001743   Thumb Code    48  stm32f10x_rcc.o(.text)
    RCC_AdjustHSICalibrationValue            0x08001773   Thumb Code    20  stm32f10x_rcc.o(.text)
    RCC_HSICmd                               0x08001787   Thumb Code     6  stm32f10x_rcc.o(.text)
    RCC_PLLConfig                            0x0800178d   Thumb Code    24  stm32f10x_rcc.o(.text)
    RCC_PLLCmd                               0x080017a5   Thumb Code     6  stm32f10x_rcc.o(.text)
    RCC_SYSCLKConfig                         0x080017ab   Thumb Code    18  stm32f10x_rcc.o(.text)
    RCC_GetSYSCLKSource                      0x080017bd   Thumb Code    10  stm32f10x_rcc.o(.text)
    RCC_HCLKConfig                           0x080017c7   Thumb Code    18  stm32f10x_rcc.o(.text)
    RCC_PCLK1Config                          0x080017d9   Thumb Code    18  stm32f10x_rcc.o(.text)
    RCC_PCLK2Config                          0x080017eb   Thumb Code    20  stm32f10x_rcc.o(.text)
    RCC_ITConfig                             0x080017ff   Thumb Code    30  stm32f10x_rcc.o(.text)
    RCC_USBCLKConfig                         0x0800181d   Thumb Code     6  stm32f10x_rcc.o(.text)
    RCC_ADCCLKConfig                         0x08001823   Thumb Code    18  stm32f10x_rcc.o(.text)
    RCC_LSEConfig                            0x08001835   Thumb Code    44  stm32f10x_rcc.o(.text)
    RCC_LSICmd                               0x08001861   Thumb Code     6  stm32f10x_rcc.o(.text)
    RCC_RTCCLKConfig                         0x08001867   Thumb Code    12  stm32f10x_rcc.o(.text)
    RCC_RTCCLKCmd                            0x08001873   Thumb Code     6  stm32f10x_rcc.o(.text)
    RCC_GetClocksFreq                        0x08001879   Thumb Code   192  stm32f10x_rcc.o(.text)
    RCC_AHBPeriphClockCmd                    0x08001939   Thumb Code    26  stm32f10x_rcc.o(.text)
    RCC_APB2PeriphClockCmd                   0x08001953   Thumb Code    26  stm32f10x_rcc.o(.text)
    RCC_APB1PeriphClockCmd                   0x0800196d   Thumb Code    26  stm32f10x_rcc.o(.text)
    RCC_APB2PeriphResetCmd                   0x08001987   Thumb Code    26  stm32f10x_rcc.o(.text)
    RCC_APB1PeriphResetCmd                   0x080019a1   Thumb Code    26  stm32f10x_rcc.o(.text)
    RCC_BackupResetCmd                       0x080019bb   Thumb Code     6  stm32f10x_rcc.o(.text)
    RCC_ClockSecuritySystemCmd               0x080019c1   Thumb Code     6  stm32f10x_rcc.o(.text)
    RCC_MCOConfig                            0x080019c7   Thumb Code     6  stm32f10x_rcc.o(.text)
    RCC_ClearFlag                            0x080019cd   Thumb Code    14  stm32f10x_rcc.o(.text)
    RCC_GetITStatus                          0x080019db   Thumb Code    20  stm32f10x_rcc.o(.text)
    RCC_ClearITPendingBit                    0x080019ef   Thumb Code     6  stm32f10x_rcc.o(.text)
    NVIC_PriorityGroupConfig                 0x08001a29   Thumb Code    10  misc.o(.text)
    NVIC_Init                                0x08001a33   Thumb Code   118  misc.o(.text)
    NVIC_SetVectorTable                      0x08001aa9   Thumb Code    12  misc.o(.text)
    NVIC_SystemLPConfig                      0x08001ab5   Thumb Code    38  misc.o(.text)
    SysTick_CLKSourceConfig                  0x08001adb   Thumb Code    40  misc.o(.text)
    USART_DeInit                             0x08001b21   Thumb Code   134  stm32f10x_usart.o(.text)
    USART_Init                               0x08001ba7   Thumb Code   210  stm32f10x_usart.o(.text)
    USART_StructInit                         0x08001c79   Thumb Code    24  stm32f10x_usart.o(.text)
    USART_ClockInit                          0x08001c91   Thumb Code    34  stm32f10x_usart.o(.text)
    USART_ClockStructInit                    0x08001cb3   Thumb Code    12  stm32f10x_usart.o(.text)
    USART_Cmd                                0x08001cbf   Thumb Code    24  stm32f10x_usart.o(.text)
    USART_ITConfig                           0x08001cd7   Thumb Code    74  stm32f10x_usart.o(.text)
    USART_DMACmd                             0x08001d21   Thumb Code    24  stm32f10x_usart.o(.text)
    USART_SetAddress                         0x08001d39   Thumb Code    18  stm32f10x_usart.o(.text)
    USART_WakeUpConfig                       0x08001d4b   Thumb Code    18  stm32f10x_usart.o(.text)
    USART_ReceiverWakeUpCmd                  0x08001d5d   Thumb Code    24  stm32f10x_usart.o(.text)
    USART_LINBreakDetectLengthConfig         0x08001d75   Thumb Code    18  stm32f10x_usart.o(.text)
    USART_LINCmd                             0x08001d87   Thumb Code    24  stm32f10x_usart.o(.text)
    USART_SendData                           0x08001d9f   Thumb Code     8  stm32f10x_usart.o(.text)
    USART_ReceiveData                        0x08001da7   Thumb Code    10  stm32f10x_usart.o(.text)
    USART_SendBreak                          0x08001db1   Thumb Code    10  stm32f10x_usart.o(.text)
    USART_SetGuardTime                       0x08001dbb   Thumb Code    16  stm32f10x_usart.o(.text)
    USART_SetPrescaler                       0x08001dcb   Thumb Code    16  stm32f10x_usart.o(.text)
    USART_SmartCardCmd                       0x08001ddb   Thumb Code    24  stm32f10x_usart.o(.text)
    USART_SmartCardNACKCmd                   0x08001df3   Thumb Code    24  stm32f10x_usart.o(.text)
    USART_HalfDuplexCmd                      0x08001e0b   Thumb Code    24  stm32f10x_usart.o(.text)
    USART_OverSampling8Cmd                   0x08001e23   Thumb Code    22  stm32f10x_usart.o(.text)
    USART_OneBitMethodCmd                    0x08001e39   Thumb Code    24  stm32f10x_usart.o(.text)
    USART_IrDAConfig                         0x08001e51   Thumb Code    18  stm32f10x_usart.o(.text)
    USART_IrDACmd                            0x08001e63   Thumb Code    24  stm32f10x_usart.o(.text)
    USART_GetFlagStatus                      0x08001e7b   Thumb Code    26  stm32f10x_usart.o(.text)
    USART_ClearFlag                          0x08001e95   Thumb Code    18  stm32f10x_usart.o(.text)
    USART_GetITStatus                        0x08001ea7   Thumb Code    84  stm32f10x_usart.o(.text)
    USART_ClearITPendingBit                  0x08001efb   Thumb Code    50  stm32f10x_usart.o(.text)
    SPI_I2S_DeInit                           0x08001f2d   Thumb Code    76  stm32f10x_spi.o(.text)
    SPI_Init                                 0x08001f79   Thumb Code    60  stm32f10x_spi.o(.text)
    I2S_Init                                 0x08001fb5   Thumb Code   222  stm32f10x_spi.o(.text)
    SPI_StructInit                           0x08002093   Thumb Code    24  stm32f10x_spi.o(.text)
    I2S_StructInit                           0x080020ab   Thumb Code    20  stm32f10x_spi.o(.text)
    SPI_Cmd                                  0x080020bf   Thumb Code    24  stm32f10x_spi.o(.text)
    I2S_Cmd                                  0x080020d7   Thumb Code    24  stm32f10x_spi.o(.text)
    SPI_I2S_ITConfig                         0x080020ef   Thumb Code    36  stm32f10x_spi.o(.text)
    SPI_I2S_DMACmd                           0x08002113   Thumb Code    24  stm32f10x_spi.o(.text)
    SPI_I2S_SendData                         0x0800212b   Thumb Code     4  stm32f10x_spi.o(.text)
    SPI_I2S_ReceiveData                      0x0800212f   Thumb Code     6  stm32f10x_spi.o(.text)
    SPI_NSSInternalSoftwareConfig            0x08002135   Thumb Code    30  stm32f10x_spi.o(.text)
    SPI_SSOutputCmd                          0x08002153   Thumb Code    24  stm32f10x_spi.o(.text)
    SPI_DataSizeConfig                       0x0800216b   Thumb Code    18  stm32f10x_spi.o(.text)
    SPI_TransmitCRC                          0x0800217d   Thumb Code    10  stm32f10x_spi.o(.text)
    SPI_CalculateCRC                         0x08002187   Thumb Code    24  stm32f10x_spi.o(.text)
    SPI_GetCRC                               0x0800219f   Thumb Code    16  stm32f10x_spi.o(.text)
    SPI_GetCRCPolynomial                     0x080021af   Thumb Code     6  stm32f10x_spi.o(.text)
    SPI_BiDirectionalLineConfig              0x080021b5   Thumb Code    28  stm32f10x_spi.o(.text)
    SPI_I2S_GetFlagStatus                    0x080021d1   Thumb Code    18  stm32f10x_spi.o(.text)
    SPI_I2S_ClearFlag                        0x080021e3   Thumb Code     6  stm32f10x_spi.o(.text)
    SPI_I2S_GetITStatus                      0x080021e9   Thumb Code    52  stm32f10x_spi.o(.text)
    SPI_I2S_ClearITPendingBit                0x0800221d   Thumb Code    20  stm32f10x_spi.o(.text)
    SystemInit                               0x08002305   Thumb Code    78  system_stm32f10x.o(.text)
    SystemCoreClockUpdate                    0x08002353   Thumb Code   142  system_stm32f10x.o(.text)
    eMBFuncReadCoils                         0x08002405   Thumb Code   174  mbfunccoils.o(.text)
    eMBFuncWriteCoil                         0x080024b3   Thumb Code   112  mbfunccoils.o(.text)
    eMBFuncWriteMultipleCoils                0x08002523   Thumb Code   144  mbfunccoils.o(.text)
    eMBFuncReadDiscreteInputs                0x080025b3   Thumb Code   172  mbfuncdisc.o(.text)
    eMBFuncWriteHoldingRegister              0x0800265f   Thumb Code    66  mbfuncholding.o(.text)
    eMBFuncWriteMultipleHoldingRegister      0x080026a1   Thumb Code   110  mbfuncholding.o(.text)
    eMBFuncReadHoldingRegister               0x0800270f   Thumb Code   140  mbfuncholding.o(.text)
    eMBFuncReadWriteMultipleHoldingRegister  0x0800279b   Thumb Code   212  mbfuncholding.o(.text)
    eMBFuncReadInputRegister                 0x0800286f   Thumb Code   140  mbfuncinput.o(.text)
    eMBSetSlaveID                            0x080028fd   Thumb Code   112  mbfuncother.o(.text)
    eMBFuncReportSlaveID                     0x0800296d   Thumb Code    30  mbfuncother.o(.text)
    xMBUtilSetBits                           0x08002995   Thumb Code    96  mbutils.o(.text)
    xMBUtilGetBits                           0x080029f5   Thumb Code    46  mbutils.o(.text)
    prveMBError2Exception                    0x08002a23   Thumb Code    34  mbutils.o(.text)
    eMBTCPDoInit                             0x08002a45   Thumb Code    20  mbtcp.o(.text)
    eMBTCPStart                              0x08002a59   Thumb Code     2  mbtcp.o(.text)
    eMBTCPStop                               0x08002a5b   Thumb Code     8  mbtcp.o(.text)
    eMBTCPReceive                            0x08002a63   Thumb Code    72  mbtcp.o(.text)
    eMBTCPSend                               0x08002aab   Thumb Code    48  mbtcp.o(.text)
    eMBInit                                  0x08002add   Thumb Code    70  mb.o(.text)
    eMBTCPInit                               0x08002b23   Thumb Code    86  mb.o(.text)
    eMBRegisterCB                            0x08002b79   Thumb Code   138  mb.o(.text)
    eMBClose                                 0x08002c03   Thumb Code    32  mb.o(.text)
    eMBEnable                                0x08002c23   Thumb Code    32  mb.o(.text)
    eMBDisable                               0x08002c43   Thumb Code    42  mb.o(.text)
    eMBPoll                                  0x08002c6d   Thumb Code   266  mb.o(.text)
    xMBPortEventInit                         0x08002dc1   Thumb Code    10  portevent.o(.text)
    xMBPortEventPost                         0x08002dcb   Thumb Code    16  portevent.o(.text)
    xMBPortEventGet                          0x08002ddb   Thumb Code    36  portevent.o(.text)
    xMBTCPPortInit                           0x08002e09   Thumb Code    34  porttcp.o(.text)
    vMBTCPPortClose                          0x08002e2b   Thumb Code     2  porttcp.o(.text)
    vMBTCPPortDisable                        0x08002e2d   Thumb Code     2  porttcp.o(.text)
    xMBTCPPortGetRequest                     0x08002e2f   Thumb Code    22  porttcp.o(.text)
    xMBTCPPortSendResponse                   0x08002e45   Thumb Code    20  porttcp.o(.text)
    xMBPortTCPPool                           0x08002e59   Thumb Code    90  porttcp.o(.text)
    EnterCriticalSection                     0x08002eb3   Thumb Code     4  porttcp.o(.text)
    ExitCriticalSection                      0x08002eb7   Thumb Code     4  porttcp.o(.text)
    __aeabi_memcpy                           0x08002ec5   Thumb Code    36  memcpya.o(.text)
    __aeabi_memcpy4                          0x08002ec5   Thumb Code     0  memcpya.o(.text)
    __aeabi_memcpy8                          0x08002ec5   Thumb Code     0  memcpya.o(.text)
    __scatterload                            0x08002ee9   Thumb Code    28  init.o(.text)
    __scatterload_rt2                        0x08002ee9   Thumb Code     0  init.o(.text)
    __0printf$bare                           0x08002f0d   Thumb Code     8  printfb.o(i.__0printf$bare)
    __1printf$bare                           0x08002f0d   Thumb Code     0  printfb.o(i.__0printf$bare)
    __2printf                                0x08002f0d   Thumb Code     0  printfb.o(i.__0printf$bare)
    __scatterload_copy                       0x08002f1d   Thumb Code    14  handlers.o(i.__scatterload_copy)
    __scatterload_null                       0x08002f2b   Thumb Code     2  handlers.o(i.__scatterload_null)
    __scatterload_zeroinit                   0x08002f2d   Thumb Code    14  handlers.o(i.__scatterload_zeroinit)
    Region$$Table$$Base                      0x08002f5c   Number         0  anon$$obj.o(Region$$Table)
    Region$$Table$$Limit                     0x08002f7c   Number         0  anon$$obj.o(Region$$Table)
    TimingDelay                              0x20000018   Data           4  systick.o(.data)
    SystemCoreClock                          0x20000030   Data           4  system_stm32f10x.o(.data)
    AHBPrescTable                            0x20000034   Data          16  system_stm32f10x.o(.data)
    pxMBFrameCBByteReceived                  0x200000ec   Data           4  mb.o(.data)
    pxMBFrameCBTransmitterEmpty              0x200000f0   Data           4  mb.o(.data)
    pxMBPortCBTimerExpired                   0x200000f4   Data           4  mb.o(.data)
    pxMBFrameCBReceiveFSMCur                 0x200000f8   Data           4  mb.o(.data)
    pxMBFrameCBTransmitFSMCur                0x200000fc   Data           4  mb.o(.data)
    __stdout                                 0x20000104   Data           4  stdout.o(.data)
    __initial_sp                             0x20000630   Data           0  startup_stm32f10x_hd.o(STACK)



==============================================================================

Memory Map of the image

  Image Entry point : 0x08000145

  Load Region LR_1 (Base: 0x08000000, Size: 0x00003084, Max: 0xffffffff, ABSOLUTE)

    Execution Region ER_RO (Base: 0x08000000, Size: 0x00002f7c, Max: 0xffffffff, ABSOLUTE)

    Base Addr    Size         Type   Attr      Idx    E Section Name        Object

    0x08000000   0x00000130   Data   RO            3    RESET               startup_stm32f10x_hd.o
    0x08000130   0x00000000   Code   RO          484  * .ARM.Collect$$$$00000000  mc_w.l(entry.o)(mc_w.l)
    0x08000130   0x00000004   Code   RO          751    .ARM.Collect$$$$00000001  mc_w.l(entry2.o)(mc_w.l)
    0x08000134   0x00000004   Code   RO          754    .ARM.Collect$$$$00000004  mc_w.l(entry5.o)(mc_w.l)
    0x08000138   0x00000008   Code   RO          755    .ARM.Collect$$$$00000007  mc_w.l(entry7.o)(mc_w.l)
    0x08000140   0x00000004   Code   RO          752    .ARM.Collect$$$$00002712  mc_w.l(entry2.o)(mc_w.l)
    0x08000144   0x00000024   Code   RO            4  * .text               startup_stm32f10x_hd.o
    0x08000168   0x000000c0   Code   RO           10    .text               led.o
    0x08000228   0x00000388   Code   RO           64    .text               main.o
    0x080005b0   0x00000030   Code   RO          110    .text               stm32f10x_it.o
    0x080005e0   0x00000148   Code   RO          126    .text               system_init.o
    0x08000728   0x00000078   Code   RO          148    .text               systick.o
    0x080007a0   0x00000228   Code   RO          170    .text               usart1.o
    0x080009c8   0x00000964   Code   RO          189    .text               w5500.o
    0x0800132c   0x00000358   Code   RO          201    .text               stm32f10x_gpio.o
    0x08001684   0x000003a4   Code   RO          213    .text               stm32f10x_rcc.o
    0x08001a28   0x000000f8   Code   RO          227    .text               misc.o
    0x08001b20   0x0000040c   Code   RO          239    .text               stm32f10x_usart.o
    0x08001f2c   0x00000310   Code   RO          251    .text               stm32f10x_spi.o
    0x0800223c   0x000001c8   Code   RO          285    .text               system_stm32f10x.o
    0x08002404   0x000001ae   Code   RO          324    .text               mbfunccoils.o
    0x080025b2   0x000000ac   Code   RO          339    .text               mbfuncdisc.o
    0x0800265e   0x00000210   Code   RO          351    .text               mbfuncholding.o
    0x0800286e   0x0000008c   Code   RO          363    .text               mbfuncinput.o
    0x080028fa   0x00000002   PAD
    0x080028fc   0x00000098   Code   RO          375    .text               mbfuncother.o
    0x08002994   0x000000b0   Code   RO          390    .text               mbutils.o
    0x08002a44   0x00000096   Code   RO          416    .text               mbtcp.o
    0x08002ada   0x00000002   PAD
    0x08002adc   0x000002e4   Code   RO          431    .text               mb.o
    0x08002dc0   0x00000048   Code   RO          452    .text               portevent.o
    0x08002e08   0x000000bc   Code   RO          466    .text               porttcp.o
    0x08002ec4   0x00000024   Code   RO          487    .text               mc_w.l(memcpya.o)(mc_w.l)
    0x08002ee8   0x00000024   Code   RO          772    .text               mc_w.l(init.o)(mc_w.l)
    0x08002f0c   0x00000010   Code   RO          492    i.__0printf$bare    mc_w.l(printfb.o)(mc_w.l)
    0x08002f1c   0x0000000e   Code   RO          784    i.__scatterload_copy  mc_w.l(handlers.o)(mc_w.l)
    0x08002f2a   0x00000002   Code   RO          785    i.__scatterload_null  mc_w.l(handlers.o)(mc_w.l)
    0x08002f2c   0x0000000e   Code   RO          786    i.__scatterload_zeroinit  mc_w.l(handlers.o)(mc_w.l)
    0x08002f3a   0x00000022   Code   RO          499    i._printf_core      mc_w.l(printfb.o)(mc_w.l)
    0x08002f5c   0x00000020   Data   RO          782    Region$$Table       anon$$obj.o


    Execution Region ER_RW (Base: 0x20000000, Size: 0x00000108, Max: 0xffffffff, ABSOLUTE)

    Base Addr    Size         Type   Attr      Idx    E Section Name        Object

    0x20000000   0x00000018   Data   RW           65    .data               main.o
    0x20000018   0x00000004   Data   RW          149    .data               systick.o
    0x2000001c   0x00000014   Data   RW          214    .data               stm32f10x_rcc.o
    0x20000030   0x00000014   Data   RW          286    .data               system_stm32f10x.o
    0x20000044   0x00000002   Data   RW          377    .data               mbfuncother.o
    0x20000046   0x00000002   PAD
    0x20000048   0x000000b8   Data   RW          432    .data               mb.o
    0x20000100   0x00000002   Data   RW          453    .data               portevent.o
    0x20000102   0x00000002   Data   RW          468    .data               porttcp.o
    0x20000104   0x00000004   Data   RW          756    .data               mc_w.l(stdout.o)(mc_w.l)


    Execution Region ER_ZI (Base: 0x20000108, Size: 0x00000528, Max: 0xffffffff, ABSOLUTE)

    Base Addr    Size         Type   Attr      Idx    E Section Name        Object

    0x20000108   0x00000020   Zero   RW          376    .bss                mbfuncother.o
    0x20000128   0x00000107   Zero   RW          467    .bss                porttcp.o
    0x2000022f   0x00000001   PAD
    0x20000230   0x00000400   Zero   RW            1    STACK               startup_stm32f10x_hd.o


==============================================================================

Image component sizes


      Code (inc. data)   RO Data    RW Data    ZI Data      Debug   Object Name

       192          4          0          0          0          0   led.o
       904         76          0         24          0          0   main.o
       740         74          0        184          0          0   mb.o
         0          0          0          0          0          0   mbascii.o
       430          0          0          0          0          0   mbfunccoils.o
       172          0          0          0          0          0   mbfuncdisc.o
       528          0          0          0          0          0   mbfuncholding.o
       140          0          0          0          0          0   mbfuncinput.o
       152         10          0          2         32          0   mbfuncother.o
       150          0          0          0          0          0   mbtcp.o
       176          0          0          0          0          0   mbutils.o
       248         30          0          0          0          0   misc.o
        72         10          0          2          0          0   portevent.o
       188         10          0          2        263          0   porttcp.o
        36          8        304          0       1024          0   startup_stm32f10x_hd.o
       856         40          0          0          0          0   stm32f10x_gpio.o
        48          4          0          0          0          0   stm32f10x_it.o
       932         52          0         20          0          0   stm32f10x_rcc.o
       784         12          0          0          0          0   stm32f10x_spi.o
      1036         20          0          0          0          0   stm32f10x_usart.o
       328         10          0          0          0          0   system_init.o
       456         36          0         20          0          0   system_stm32f10x.o
       120         16          0          4          0          0   systick.o
       552          8          0          0          0          0   usart1.o
      2404         24          0          0          0          0   w5500.o

    ----------------------------------------------------------------------
     11648        444        336        260       1320          0   Object Totals
         0          0         32          0          0          0   (incl. Generated)
         4          0          0          2          1          3   (incl. Padding)

    ----------------------------------------------------------------------

      Code (inc. data)   RO Data    RW Data    ZI Data      Debug   Library Member Name

         0          0          0          0          0          0   entry.o
         8          4          0          0          0          0   entry2.o
         4          0          0          0          0          0   entry5.o
         8          4          0          0          0          0   entry7.o
        30          0          0          0          0          0   handlers.o
        36          8          0          0          0          0   init.o
        36          0          0          0          0          0   memcpya.o
        50          8          0          0          0          0   printfb.o
         0          0          0          4          0          0   stdout.o

    ----------------------------------------------------------------------
       172         24          0          4          0          0   Library Totals
         0          0          0          0          0          0   (incl. Padding)

    ----------------------------------------------------------------------

      Code (inc. data)   RO Data    RW Data    ZI Data      Debug   Library Name

       172         24          0          4          0        288   mc_w.l

    ----------------------------------------------------------------------
       172         24          0          4          0          0   Library Totals

    ----------------------------------------------------------------------

==============================================================================


      Code (inc. data)   RO Data    RW Data    ZI Data      Debug   

     11820        468        336        264       1320     332044   Grand Totals
     11820        468        336        264       1320     332044   ELF Image Totals
     11820        468        336        264          0          0   ROM Totals

==============================================================================

    Total RO  Size (Code + RO Data)                12156 (  11.87kB)
    Total RW  Size (RW Data + ZI Data)              1584 (   1.55kB)
    Total ROM Size (Code + RO Data + RW Data)      12420 (  12.13kB)

==============================================================================

